:020000040800F2
:100000000050002065260008FD1D0008051E0008A0
:100010000D1E0008151E00081D1E0008000000002F
:10002000000000000000000000000000251E000885
:10003000311E0008000000003D1E0008491E000897
:10004000AD260008AD260008AD260008AD26000844
:10005000AD260008AD260008AD260008AD26000834
:10006000AD260008AD260008AD260008AD26000824
:10007000AD260008AD260008AD260008AD26000814
:10008000AD260008AD260008AD260008AD26000804
:10009000AD260008AD260008AD260008AD260008F4
:1000A000551E0008691E00087D1E0008911E0008EC
:1000B000A51E0008AD260008AD260008AD260008E4
:1000C000AD260008AD260008AD260008AD260008C4
:1000D000AD260008B91E0008AD260008AD260008B0
:1000E000AD260008AD260008AD260008000000007F
:1000F0000000000000000000000000000000000000
:0C01000000000000000000005FF808F1A3
:1001100010B5054C237833B9044B13B10448AFF341
:1001200000800123237010BDE401002000000000C6
:100130007087000808B5034B1BB103490348AFF3B0
:10014000008008BD00000000E80100207087000862
:10015000034613F8012B002AFBD1181A0138704707
:1001600081F0004102E000BF83F0004330B54FEA68
:1001700041044FEA430594EA050F08BF90EA020FD5
:100180001FBF54EA000C55EA020C7FEA645C7FEA68
:10019000655C00F0E2804FEA5454D4EB5555B8BF8B
:1001A0006D420CDD2C4480EA020281EA030382EAFC
:1001B000000083EA010180EA020281EA0303362D8E
:1001C00088BF30BD11F0004F4FEA01314FF4801C61
:1001D0004CEA113102D0404261EB410113F0004F73
:1001E0004FEA03334CEA133302D0524263EB43032A
:1001F00094EA050F00F0A780A4F10104D5F1200EC8
:100200000DDB02FA0EFC22FA05F2801841F1000122
:1002100003FA0EF2801843FA05F359410EE0A5F1F6
:1002200020050EF1200E012A03FA0EFC28BF4CF027
:10023000020C43FA05F3C01851EBE37101F00045DD
:1002400007D54FF0000EDCF1000C7EEB00006EEBEA
:100250000101B1F5801F1BD3B1F5001F0CD3490874
:100260005FEA30004FEA3C0C04F101044FEA4452CB
:1002700012F5800F80F09A80BCF1004F08BF5FEA52
:10028000500C50F1000041EB045141EA050130BD32
:100290005FEA4C0C404141EB0101013C28BFB1F544
:1002A000801FE9D291F0000F04BF01460020B1FA8F
:1002B00081F308BF2033A3F10B03B3F120020CDA62
:1002C0000C3208DD02F1140CC2F10C0201FA0CF040
:1002D00021FA02F10CE002F11402D8BFC2F1200CA5
:1002E00001FA02F120FA0CFCDCBF41EA0C0190405B
:1002F000E41AA2BF01EB0451294330BD6FEA0404A4
:100300001F3C1CDA0C340EDC04F11404C4F120028E
:1003100020FA04F001FA02F340EA030021FA04F3A0
:1003200045EA030130BDC4F10C04C4F1200220FAF7
:1003300002F001FA04F340EA0300294630BD21FA35
:1003400004F0294630BD94F0000F83F4801306BFFB
:1003500081F480110134013D4EE77FEA645C18BFEF
:100360007FEA655C29D094EA050F08BF90EA020F86
:1003700005D054EA000C04BF1946104630BD91EA7E
:10038000030F1EBF0021002030BD5FEA545C05D181
:100390004000494128BF41F0004130BD14F58004C0
:1003A0003CBF01F5801130BD01F0004545F0FE4134
:1003B00041F470014FF0000030BD7FEA645C1ABF69
:1003C000194610467FEA655C1CBF0B46024650EAA0
:1003D000013406BF52EA033591EA030F41F40021CC
:1003E00030BD00BF90F0000F04BF0021704730B552
:1003F0004FF4806404F132044FF000054FF0000127
:1004000050E700BF90F0000F04BF0021704730B5E7
:100410004FF4806404F1320410F0004548BF4042BC
:100420004FF000013EE700BF42004FEAE2014FEA11
:1004300031014FEA02701FBF12F07F4393F07F4FEC
:1004400081F06051704732F07F4208BF704793F0EF
:100450007F4F04BF41F40021704730B54FF4607402
:1004600001F0004521F000411CE700BF50EA010205
:1004700008BF704730B54FF000050AE050EA0102AE
:1004800008BF704730B511F0004502D5404261EB1E
:1004900041014FF4806404F132045FEA915C3FF45F
:1004A000D8AE4FF003025FEADC0C18BF03325FEAFC
:1004B000DC0C18BF033202EBDC02C2F1200300FAAD
:1004C00003FC20FA02F001FA03FE40EA0E0021FAD2
:1004D00002F11444BDE600BF70B54FF0FF0C4CF4C0
:1004E000E06C1CEA11541DBF1CEA135594EA0C0F72
:1004F00095EA0C0F00F0DEF82C4481EA030621EAAD
:100500004C5123EA4C5350EA013518BF52EA0335E7
:1005100041F4801143F4801338D0A0FB02CE4FF099
:100520000005E1FB02E506F00042E0FB03E54FF0C9
:100530000006E1FB03569CF0000F18BF4EF0010EC1
:10054000A4F1FF04B6F5007F64F5407404D25FEABD
:100550004E0E6D4146EB060642EAC62141EA555170
:100560004FEAC52040EA5E504FEACE2EB4F1FD0CB2
:1005700088BFBCF5E06F1ED8BEF1004F08BF5FEA30
:10058000500E50F1000041EB045170BD06F00046E2
:1005900046EA010140EA020081EA0301B4EB5C048F
:1005A000C2BFD4EB0C0541EA045170BD41F4801187
:1005B0004FF0000E013C00F3AB8014F1360FDEBFAC
:1005C000002001F0004170BDC4F10004203C35DA88
:1005D0000C341BDC04F11404C4F1200500FA05F30B
:1005E00020FA04F001FA05F240EA020001F00042AC
:1005F00021F0004110EBD37021FA04F642EB060122
:100600005EEA430E08BF20EAD37070BDC4F10C044B
:10061000C4F1200500FA04F320FA05F001FA04F20F
:1006200040EA020001F0004110EBD37041F10001FB
:100630005EEA430E08BF20EAD37070BDC4F1200506
:1006400000FA05F24EEA020E20FA04F301FA05F26E
:1006500043EA020321FA04F001F0004121FA04F216
:1006600020EA020000EBD3705EEA430E08BF20EAE6
:10067000D37070BD94F0000F0FD101F00046400020
:1006800041EB010111F4801F08BF013CF7D041EAA2
:10069000060195F0000F18BF704703F000465200A6
:1006A00043EB030313F4801F08BF013DF7D043EA77
:1006B0000603704794EA0C0F0CEA135518BF95EA2D
:1006C0000C0F0CD050EA410618BF52EA4306D1D1B4
:1006D00081EA030101F000414FF0000070BD50EAD3
:1006E000410606BF1046194652EA430619D094EA5D
:1006F0000C0F02D150EA013613D195EA0C0F05D147
:1007000052EA03361CBF104619460AD181EA03019A
:1007100001F0004141F0FE4141F470014FF0000052
:1007200070BD41F0FE4141F4780170BD70B54FF0ED
:10073000FF0C4CF4E06C1CEA11541DBF1CEA13556D
:1007400094EA0C0F95EA0C0F00F0A7F8A4EB05044F
:1007500081EA030E52EA03354FEA013100F0888046
:100760004FEA03334FF0805545EA131343EA12630F
:100770004FEA022245EA111545EA10654FEA0026C4
:100780000EF000419D4208BF964244F1FD0404F57D
:10079000407402D25B084FEA3202B61A65EB0305D9
:1007A0005B084FEA32024FF480104FF4002CB6EB96
:1007B000020E75EB030E22BFB61A754640EA0C0016
:1007C0005B084FEA3202B6EB020E75EB030E22BF56
:1007D000B61A754640EA5C005B084FEA3202B6EB97
:1007E000020E75EB030E22BFB61A754640EA9C0056
:1007F0005B084FEA3202B6EB020E75EB030E22BF26
:10080000B61A754640EADC0055EA060E18D04FEAE3
:10081000051545EA16754FEA06164FEAC30343EA83
:1008200052734FEAC2025FEA1C1CC0D111F4801F50
:100830000BD141EA00014FF000004FF0004CB6E749
:1008400011F4801F04BF01430020B4F1FD0C88BFE8
:10085000BCF5E06F3FF6AFAEB5EB030C04BFB6EBF3
:10086000020C5FEA500C50F1000041EB045170BDE6
:100870000EF0004E4EEA113114EB5C04C2BFD4EB13
:100880000C0541EA045170BD41F480114FF0000E97
:10089000013C90E645EA060E8DE60CEA135594EA13
:1008A0000C0F08BF95EA0C0F3FF43BAF94EA0C0F16
:1008B0000AD150EA01347FF434AF95EA0C0F7FF48B
:1008C00025AF104619462CE795EA0C0F06D152EADF
:1008D00003353FF4FDAE1046194622E750EA4106C3
:1008E00018BF52EA43067FF4C5AE50EA41047FF4D4
:1008F0000DAF52EA43057FF4EBAE12E74FF0FF3C39
:1009000006E000BF4FF0010C02E000BF4FF0010C09
:100910004DF804CD4FEA410C7FEA6C5C4FEA430C82
:1009200018BF7FEA6C5C1BD001B050EA410C0CBFD1
:1009300052EA430C91EA030F02BF90EA020F002033
:10094000704710F1000F91EA030F58BF994208BF9A
:1009500090422CBFD8176FEAE37040F00100704757
:100960004FEA410C7FEA6C5C02D150EA013C07D1AE
:100970004FEA430C7FEA6C5CD6D152EA033CD3D0F9
:100980005DF8040B704700BF8446104662468C46F3
:100990001946634600E000BF01B5FFF7B7FF002826
:1009A00048BF10F1000F01BD4DF808EDFFF7F4FF4F
:1009B0000CBF012000205DF808FB00BF4DF808EDDA
:1009C000FFF7EAFF34BF012000205DF808FB00BFFD
:1009D0004DF808EDFFF7E0FF94BF012000205DF81F
:1009E00008FB00BF4DF808EDFFF7CEFF94BF0120D4
:1009F00000205DF808FB00BF4DF808EDFFF7C4FFCD
:100A000034BF012000205DF808FB00BF4FEA410C15
:100A10007FEA6C5C02D150EA013C0AD14FEA430CF8
:100A20007FEA6C5C02D152EA033C02D14FF0000035
:100A300070474FF0010070474FEA410212F5001273
:100A400015D211D56FF47873B3EB625212D94FEA15
:100A5000C12343F0004343EA505311F0004F23FAFF
:100A600002F018BF404270474FF00000704750EA54
:100A7000013005D111F0004008BF6FF00040704711
:100A80004FF00000704700BF4FEA4102B2F1E0436F
:100A900024BFB3F5001CDCF1FE5C0DD901F0004C65
:100AA0004FEAC0024CEA5070B2F1004F40EB8300B5
:100AB00008BF20F00100704711F0804F21D113F1E1
:100AC0003872BCBF01F00040704741F480114FEA1A
:100AD0005252C2F11802C2F1200C10FA0CF320FAA3
:100AE00002F018BF40F001004FEAC1234FEAD323C0
:100AF00003FA0CFC40EA0C0023FA02F34FEA43032A
:100B0000CCE77FEA625307D150EA01331EBF4FF0B2
:100B1000FE4040F44000704701F0004040F0FE40CD
:100B200040F40000704700BF80F0004002E000BFCA
:100B300081F0004142001FBF5FEA410392EA030FC8
:100B40007FEA226C7FEA236C6AD04FEA1262D2EB12
:100B50001363C1BFD218414048404140B8BF5B4217
:100B6000192B88BF704710F0004F40F4000020F0B0
:100B70007F4018BF404211F0004F41F4000121F0C6
:100B80007F4118BF494292EA030F3FD0A2F1010210
:100B900041FA03FC10EB0C00C3F1200301FA03F14E
:100BA00000F0004302D5494260EB4000B0F5000F71
:100BB00013D3B0F1807F06D340084FEA310102F130
:100BC0000102FE2A51D2B1F1004F40EBC25008BFE2
:100BD00020F0010040EA03007047490040EB0000AC
:100BE000013A28BFB0F5000FEDD2B0FA80FCACF1AD
:100BF000080CB2EB0C0200FA0CF0AABF00EBC250DA
:100C000052421843BCBFD0401843704792F0000FC7
:100C100081F4000106BF80F400000132013BB5E71A
:100C20004FEA41037FEA226C18BF7FEA236C21D090
:100C300092EA030F04D092F0000F08BF08467047F5
:100C400090EA010F1CBF0020704712F07F4F04D1C3
:100C5000400028BF40F00040704712F100723CBFD6
:100C600000F50000704700F0004343F0FE4040F400
:100C7000000070477FEA226216BF08467FEA2363BE
:100C80000146420206BF5FEA412390EA010F40F4A9
:100C9000800070474FF0000304E000BF10F00043F5
:100CA00048BF40425FEA000C08BF704743F09643DC
:100CB00001464FF000001CE050EA010208BF7047F7
:100CC0004FF000030AE000BF50EA010208BF70477E
:100CD00011F0004302D5404261EB41015FEA010C93
:100CE00002BF84460146002043F0B64308BFA3F18B
:100CF0008053A3F50003BCFA8CF2083AA3EBC2536D
:100D000010DB01FA02FC634400FA02FCC2F120028B
:100D1000BCF1004F20FA02F243EB020008BF20F0C2
:100D20000100704702F1200201FA02FCC2F1200228
:100D300050EA4C0021FA02F243EB020008BF20EA1D
:100D4000DC7070474FF0FF0C1CEAD0521EBF1CEA4B
:100D5000D15392EA0C0F93EA0C0F6FD01A4480EA39
:100D6000010C400218BF5FEA41211ED04FF0006322
:100D700043EA501043EA5111A0FB01310CF000404E
:100D8000B1F5000F3EBF490041EAD3715B0040EA74
:100D9000010062F17F02FD2A1DD8B3F1004F40EB44
:100DA000C25008BF20F00100704790F0000F0CF017
:100DB000004C08BF49024CEA502040EA51207F3ADB
:100DC000C2BFD2F1FF0340EAC250704740F40000B6
:100DD0004FF00003013A5DDC12F1190FDCBF00F0A7
:100DE00000407047C2F10002410021FA02F1C2F155
:100DF000200200FA02FC5FEA310040F1000053EAF1
:100E00004C0308BF20EADC70704792F0000F00F03E
:100E1000004C02BF400010F4000F013AF9D040EA44
:100E20000C0093F0000F01F0004C02BF490011F4D8
:100E3000000F013BF9D041EA0C018FE70CEAD153D6
:100E400092EA0C0F18BF93EA0C0F0AD030F0004C56
:100E500018BF31F0004CD8D180EA010000F000400A
:100E6000704790F0000F17BF90F0004F084691F0C8
:100E7000000F91F0004F14D092EA0C0F01D1420202
:100E80000FD193EA0C0F03D14B0218BF084608D1CB
:100E900080EA010000F0004040F0FE4040F4000015
:100EA000704740F0FE4040F4400070474FF0FF0CA8
:100EB0001CEAD0521EBF1CEAD15392EA0C0F93EAEF
:100EC0000C0F69D0A2EB030280EA010C49024FEA41
:100ED000402037D04FF0805343EA111143EA1013FA
:100EE0000CF000408B4238BF5B0042F17D024FF4B2
:100EF000000C8B4224BF5B1A40EA0C00B3EB510F8D
:100F000024BFA3EB510340EA5C00B3EB910F24BF75
:100F1000A3EB910340EA9C00B3EBD10F24BFA3EBFA
:100F2000D10340EADC001B0118BF5FEA1C1CE0D1C2
:100F3000FD2A3FF650AF8B4240EBC25008BF20F075
:100F4000010070470CF0004C4CEA50207F32C2BFC9
:100F5000D2F1FF0340EAC250704740F400004FF066
:100F60000003013A37E792F0000F00F0004C02BF97
:100F7000400010F4000F013AF9D040EA0C0093F061
:100F8000000F01F0004C02BF490011F4000F013BBB
:100F9000F9D041EA0C0195E70CEAD15392EA0C0F23
:100FA00008D142027FF47DAF93EA0C0F7FF470AF5B
:100FB000084676E793EA0C0F04D14B023FF44CAF9E
:100FC00008466EE730F0004C18BF31F0004CCAD133
:100FD00030F000427FF45CAF31F000437FF43CAF6F
:100FE0005FE700BF4FF0FF3C06E000BF4FF0010C91
:100FF00002E000BF4FF0010C4DF804CD4FEA400273
:101000004FEA41037FEA226C18BF7FEA236C11D0BC
:1010100001B052EA530C18BF90EA010F58BFB2EB6F
:10102000030088BFC81738BF6FEAE17018BF40F0EF
:10103000010070477FEA226C02D15FEA402C05D1A3
:101040007FEA236CE4D15FEA412CE1D05DF8040B28
:10105000704700BF844608466146FFE70FB5FFF7BB
:10106000C9FF002848BF10F1000F0FBD4DF808ED73
:10107000FFF7F4FF0CBF012000205DF808FB00BF64
:101080004DF808EDFFF7EAFF34BF012000205DF8BE
:1010900008FB00BF4DF808EDFFF7E0FF94BF01200B
:1010A00000205DF808FB00BF4DF808EDFFF7D2FF08
:1010B00094BF012000205DF808FB00BF4DF808ED4B
:1010C000FFF7C8FF34BF012000205DF808FB00BF18
:1010D000B0B584B002AF78607B68194A93422AD1D8
:1010E00000F03AF81749184800F0AAF9164B1B68A7
:1010F0005B42154A1360134B1B685B42114A136035
:10110000124B1B681846FFF78FF904460D46104B2B
:101110001B681846FFF788F902460B46CDE9002305
:1011200022462B460B4805F035F94FF47A614FF40F
:101130007A6000F0A5F900BF0837BD46B0BD00BF1A
:1011400064020020100200200C0200200402002093
:10115000080200208887000890B58DB000AF4321B9
:10116000D02000F061FC03461C024421D02000F096
:101170005BFC034623441846FFF790FD03463B62A1
:101180004521D02000F050FC03461C024621D0200F
:1011900000F04AFC034623441846FFF77FFD034650
:1011A000FB614721D02000F03FFC03461C02482190
:1011B000D02000F039FC034623441846FFF76EFDAB
:1011C0000346BB613B21D02000F02EFC03461C02ED
:1011D0003C21D02000F028FC034623441846FFF7AA
:1011E0005DFD03467B623D21D02000F01DFC0346DF
:1011F0001C023E21D02000F017FC03462344184671
:10120000FFF74CFD0346FB623F21D02000F00CFCB1
:1012100003461C024021D02000F006FC0346234474
:101220001846FFF73BFD0346BB624FF08E41386A1C
:10123000FFF744FF0346002B06D04FF08F41386A7A
:10124000FFF776FC03463B624FF08E41F869FFF7EB
:1012500035FF0346002B06D04FF08F41F869FFF7AA
:1012600067FC0346FB614FF08E41B869FFF726FF2C
:101270000346002B06D04FF08F41B869FFF758FCAA
:101280000346BB614FF08E41786AFFF717FF0346B4
:10129000002B06D04FF08F41786AFFF749FC0346D8
:1012A0007B624FF08E41F86AFFF708FF0346002B80
:1012B00006D04FF08F41F86AFFF73AFC0346FB6215
:1012C0004FF08E41B86AFFF7F9FE0346002B06D0B7
:1012D0004FF08F41B86AFFF72BFC0346BB623B6AB5
:1012E00083F00043524A1360786AFFF79DF84AA3DF
:1012F000D3E90023FFF71AFA02460B4610461946B7
:10130000FFF7C2FB03467B61F86AFFF78DF842A343
:10131000D3E90023FFF70AFA02460B4610461946A6
:10132000FFF7B2FB03463B61B86AFFF77DF83AA3CB
:10133000D3E90023FFF7FAF902460B461046194697
:10134000FFF7A2FB0346FB60386AFFF76DF834A392
:10135000D3E90023FFF7EAF902460B461046194687
:10136000FFF792FB0346BB60F869FFF75DF82CA31B
:10137000D3E90023FFF7DAF902460B461046194677
:10138000FFF782FB03467B60BB6883F000431A468D
:10139000F968386903F0F2FF03461846FFF744F88E
:1013A00021A3D3E90023FFF7C1F902460B461046FB
:1013B00019464FF000021F4BFFF78EF802460B460E
:1013C00010461946FFF760FB03461B4A13607A6814
:1013D000F968786903F0D2FF03461846FFF724F84E
:1013E00011A3D3E90023FFF7A1F902460B461046EB
:1013F00019464FF000020F4BFFF76EF802460B46FE
:1014000010461946FFF740FB03460C4A136000BF25
:101410003437BD4690BD00BF8FC2F5285C1F9A408F
:1014200066666666665E8D40F1D4C853FB2109404E
:101430000002002000806640040200200802002014
:1014400080B483B000AF786039600B4B5B6A1BB22D
:101450001A467B681A60094B5B6A1BB21A463B68E6
:101460001A60054B00225A62044B00225A6200BFE8
:101470000C37BD4680BC70470004004000080040A7
:1014800080B582B000AF786039607B68002B0CDDDE
:1014900001224FF48041234801F05FFC00224FF409
:1014A0000041204801F059FC0BE000224FF480413C
:1014B0001C4801F052FC01224FF40041194801F090
:1014C0004CFC3B68002B0CDD01224FF40051154809
:1014D00001F043FC00224FF48051124801F03DFC22
:1014E0000BE000224FF400510E4801F036FC0122BF
:1014F0004FF480510B4801F030FC786800F016F88A
:101500007860386800F012F83860074B1B687A681A
:101510005A63054B1B683A681A6400BF0837BD461A
:1015200080BD00BF000C01401C02002080B483B0CD
:1015300000AF78607B68002BB8BF5B4218460C3761
:10154000BD4680BC7047000080B582B000AF7860B7
:101550000E4B1B680D4A43F0807313600C4B002246
:101560001A600C4B1B680B4A43F00103136001F037
:1015700079FF0346084AA2FB03239B0C074A13602A
:10158000002318460837BD4680BD00BFFCED00E0D3
:10159000041000E0001000E083DE1B431402002072
:1015A00098B500AF064B1C6801F05CFF0346054A86
:1015B000A2FB03239B09B4FBF3F3184698BD00BFBD
:1015C000041000E0D34D621080B483B000AF7860A7
:1015D00000BF0C37BD4680BC7047000080B588B0A6
:1015E00000AF07F1100300221A605A609A60DA60B7
:1015F0002E4B9B692D4A43F0100393612B4B9B6943
:1016000003F01003FB60FB68284B9B69274A43F0FB
:1016100020039361254B9B6903F02003BB60BB68EB
:10162000224B9B69214A43F0040393611F4B9B6942
:1016300003F004037B607B681C4B9B691B4A43F0EF
:1016400008039361194B9B6903F008033B603B68F7
:1016500000224FF47341164801F07FFB00224FF443
:101660004051144801F079FB4FF473433B6101236F
:101670007B610023BB610223FB6107F11003194664
:101680000B4801F0CFF94FF440533B6101237B61DC
:101690000023BB610223FB6107F1100319460548D3
:1016A00001F0C0F900BF2037BD4680BD00100240E8
:1016B000000C01400008014080B500AF204B5B6882
:1016C0001F4A23F0F00353601D4B5B681C4A43F034
:1016D0003003536001224FF40071194801F03DFBC3
:1016E0004FF40071164801F021FB0346002B01D195
:1016F000002322E001224FF48071114801F02DFBFC
:101700000120FFF761FF00224FF400710C4801F047
:1017100024FB4FF400710A4801F008FB0346002B3C
:1017200001D0002309E00120FFF74EFF00224FF413
:101730008071034801F011FB0123184680BD00BFF2
:10174000000C014080B500AF154B5B68144A23F0D4
:10175000F0035360124B5B68114A43F0300353604F
:1017600000224FF480710E4801F0F7FA00224FF486
:1017700000710B4801F0F1FA0120FFF725FF01226B
:101780004FF48071064801F0E8FA01224FF400712D
:10179000034801F0E2FA0120FFF716FF00BF80BD09
:1017A000000C014080B582B000AF0023FB711F4BDD
:1017B0005B681E4A23F0F00353601C4B5B681B4AB6
:1017C00043F08003536001224FF40071174801F089
:1017D000C4FA0120FFF7F8FE01224FF4807113488C
:1017E00001F0BBFA0120FFF7EFFE0CE0FB790133BB
:1017F000FB71FB79322B03D9FFF7A4FF002311E023
:101800000120FFF7E1FE4FF40071084801F08EFA65
:101810000346002BEAD100224FF48071034801F007
:101820009CFA012318460837BD4680BD000C0140D4
:1018300080B500AF00224FF48071144801F08DFA9A
:10184000124B5B68114A23F0F00353600F4B5B6847
:101850000E4A43F03003536000224FF400710B48EE
:1018600001F07BFA0120FFF7AFFE01224FF48071F7
:10187000064801F072FA0120FFF7A6FE00224FF49D
:101880008071024801F069FA00BF80BD000C014080
:1018900080B500AF00224FF48071144801F05DFA6A
:1018A000124B5B68114A23F0F00353600F4B5B68E7
:1018B0000E4A43F03003536001224FF400710B488D
:1018C00001F04BFA0120FFF77FFE01224FF48071F7
:1018D000064801F042FA0120FFF776FE00224FF49D
:1018E0008071024801F039FA00BF80BD000C014050
:1018F00080B584B000AF0346FB71244B5B68234A7C
:1019000023F0F0035360214B5B68204A43F030031F
:10191000536000224FF480711C4801F01EFA00232E
:10192000FB732BE097F90730002B06DA01224FF406
:101930000071164801F011FA05E000224FF4007121
:10194000124801F00AFAFB795B00FB710120FFF7F6
:101950003BFE01224FF480710C4801F0FEF901209A
:10196000FFF732FE00224FF48071084801F0F5F9CC
:101970000120FFF729FEFB7B0133FB73FB7B072B69
:10198000D0D900BF00BF1037BD4680BD000C01405C
:1019900080B584B000AF0346FB710023BB73214BBD
:1019A0005B68204A23F0F00353601E4B5B681D4ABE
:1019B00043F0800353600023FB7322E000224FF4C6
:1019C0008071184801F0C9F90220FFF7FDFD0122DE
:1019D0004FF48071134801F0C0F9BB7B5B00BB730F
:1019E0004FF400710F4801F0A1F90346002B02D01B
:1019F000BB7B0133BB730220FFF7E6FDFB7B0133AA
:101A0000FB73FB7B072BD9D9FB79002B02D0FFF7A7
:101A10000FFF01E0FFF73CFFBB7B18461037BD46C8
:101A200080BD00BF000C014080B584B000AF03460C
:101A30000A46FB711346BB710023FB73FFF73CFEA4
:101A4000FB791846FFF754FFFB7B0133FB73FFF76D
:101A5000A9FEBB791846FFF74BFFFB7B0133FB73F5
:101A6000FFF7A0FEFFF728FEFB790133DBB2184633
:101A7000FFF73EFFFB7B0133FB73FFF793FE002074
:101A8000FFF786FF0346FB73FFF75CFEFB7B184600
:101A90001037BD4680BD80B584B000AF3B600346C3
:101AA000FB710B46BB7113467B710023FB73FFF781
:101AB00003FEFB791846FFF71BFFFFF773FEBB79A8
:101AC0001846FFF715FFFFF76DFE0023FB730BE0D1
:101AD000FB7B3A6813441B781846FFF709FFFFF7B2
:101AE00061FEFB7B0133FB73FA7B7B799A42EFD378
:101AF000FFF728FE012318461037BD4680BD80B58C
:101B000082B000AF03463A60FB710B46BB71BA79F5
:101B1000FB7911461846FFF787FF03461A463B68D4
:101B20001A70012318460837BD4680BD80B582B0C3
:101B300000AF0346FB710B46BB7113467B717B1DE7
:101B4000B979F8790122FFF7A6FF0346184608374E
:101B5000BD4680BD90B585B000AF0446084611462D
:101B60001A462346FB710346BB710B467B71134635
:101B70003B7107F10E02B979FB791846FFF7BFFFF9
:101B80000346002B37D07B790133FF2202FA03F39F
:101B90005AB27B79C3F108013B790B44013BFF2129
:101BA00041FA03F35BB213435BB2FB7397F8202057
:101BB0003B79C3F1080302FA03F387F8203097F862
:101BC00020207B79C3F1070342FA03F387F8203022
:101BD000BA7BFB7B1340DBB2BB73BA7B97F8203038
:101BE0001343DBB2BB73BA7BB979FB791846FFF7B5
:101BF0009DFF034600E0002318461437BD4690BD04
:101C000090B585B000AF0446084611461A462346F3
:101C1000FB710346BB710B467B7113463B7107F1A9
:101C20000F02B979FB791846FFF769FF3B79002B62
:101C30000AD07B79012202FA03F35AB2FB7B5BB232
:101C400013435BB2DBB20BE07B79012202FA03F3B0
:101C50005BB2DB435AB2FB7B5BB213405BB2DBB2DD
:101C6000FB73FA7BB979FB791846FFF75FFF0346F0
:101C700018461437BD4690BD80B582B000AF78607D
:101C8000391D4FF6FF730122034802F0B2FD7B6855
:101C900018460837BD4680BD3C03002080B500AF24
:101CA00000F006FD00F02CF8FFF798FC00F0D6F9E4
:101CB00000F0B0FA00F002FB00F060FA00F054FC13
:101CC0000B4801F0C3FC3C210A4801F0A5FE3C2171
:101CD000094801F0A1FE0021084801F059FD0C213E
:101CE000064801F055FD03F020FE00BFFDE700BFF0
:101CF00064020020AC020020F40200201C0200203C
:101D000080B590B000AF07F11803282200211846D3
:101D100004F02AFC3B1D00221A605A609A60DA60C7
:101D20001A610123BB614FF48033FB6100233B62E6
:101D30000123BB6202237B634FF48033BB634FF408
:101D4000E013FB6307F11803184601F01FF8034680
:101D5000002B01D000F019F80F237B600223BB6039
:101D60000023FB604FF480633B6100237B613B1DDC
:101D70000221184601F08CFA0346002B01D000F036
:101D800004F800BF4037BD4680BD80B400AF72B6D6
:101D900000BF00BFFDE7000080B485B000AF154B69
:101DA0009B69144A43F001039361124B9B6903F052
:101DB0000103BB60BB680F4BDB690E4A43F08053E5
:101DC000D3610C4BDB6903F080537B607B680A4B6B
:101DD0005B68FB60FB6823F0E063FB60FB6843F03B
:101DE0008063FB60044AFB68536000BF1437BD4644
:101DF00080BC7047001002400000014080B400AF7A
:101E000000BFFDE780B400AF00BFFDE780B400AFC6
:101E100000BFFDE780B400AF00BFFDE780B400AFB6
:101E200000BFFDE780B400AF00BFBD4680BC704777
:101E300080B400AF00BFBD4680BC704780B400AF27
:101E400000BFBD4680BC704780B500AF00F046FCC7
:101E500000BF80BD80B500AF024801F06BFE00BF3F
:101E600080BD00BF1C02002080B500AF024801F019
:101E700061FE00BF80BD00BF1C02002080B500AF26
:101E8000024801F057FE00BF80BD00BF1C020020C9
:101E900080B500AF024801F04DFE00BF80BD00BF1D
:101EA0001C02002080B500AF024801F043FE00BFD5
:101EB00080BD00BF6402002080B500AF024802F080
:101EC00023FD00BF80BD00BF3C03002080B400AFF5
:101ED00001231846BD4680BC704780B582B000AF74
:101EE0007860396004F092FB034616221A604FF0C6
:101EF000FF3318460837BD4680BD80B582B000AFBD
:101F000078604FF0FF317868FFF7E7FF00BFFDE72B
:101F100080B586B000AFF860B9607A6000237B615D
:101F20000AE0AFF300800146BB685A1CBA60CAB22F
:101F30001A707B6901337B617A697B689A42F0DBB6
:101F40007B6818461837BD4680BD80B586B000AFA7
:101F5000F860B9607A6000237B6109E0BB685A1CB5
:101F6000BA601B781846FFF787FE7B6901337B61F7
:101F70007A697B689A42F1DB7B6818461837BD4660
:101F800080BD80B483B000AF78604FF0FF33184657
:101F90000C37BD4680BC704780B483B000AF78601A
:101FA00039603B684FF400525A60002318460C37E2
:101FB000BD4680BC704780B483B000AF7860012319
:101FC00018460C37BD4680BC704780B485B000AF62
:101FD000F860B9607A60002318461437BD4680BCAB
:101FE0007047000080B586B000AF7860144A154B8A
:101FF000D31A7B617B693B61134B1B68002B02D1B9
:10200000114B124A1A60104B1A687B6813443A69E4
:102010009A4207D204F0FAFA03460C221A604FF0F3
:10202000FF3309E0084B1B68FB60074B1A687B68AD
:102030001344054A1360FB6818461837BD4680BD37
:1020400000500020000400001802002000050020BD
:1020500080B400AF00BFBD4680BC704780B592B071
:1020600000AF07F1400300221A605A6007F1240311
:1020700000221A605A609A60DA601A615A619A61A5
:102080003B1D20220021184604F06EFA394B3A4AD3
:102090001A60384B00225A60364B00229A60354B4A
:1020A00041F61F42DA60334B00221A61314B0022A5
:1020B0005A61304B00229A612E4801F019FB034609
:1020C000002B01D0FFF761FE00233B6400237B64FB
:1020D00007F140031946274802F07AFA0346002B1D
:1020E00001D0FFF752FE60237B620023BB62002316
:1020F000FB6200233B6300237B630023BB6300235D
:10210000FB6307F12403002219461A4801F002FE7E
:102110000346002B01D0FFF738FE07F124030C2201
:102120001946144801F0F6FD0346002B01D0FFF7D5
:102130002CFE00237B600023BB600023FB60002398
:102140003B6100237B614FF40053BB6100233B6282
:102150003B1D1946074802F099FA0346002B01D0AF
:10216000FFF713FE034800F0CBF900BF4837BD4628
:1021700080BD00BF1C020020002C014080B586B04D
:1021800000AF07F1080300221A605A609A60DA6013
:102190003B4600221A605A601D4B4FF080421A6085
:1021A0001B4B48225A601A4B00229A60184B41F28E
:1021B0008832DA60164B00221A61154B00229A61B0
:1021C000134801F0F3F90346002B01D0FFF7DDFDC2
:1021D0004FF48053BB6007F1080319460C4801F027
:1021E0005BFE0346002B01D0FFF7CFFD00233B60D1
:1021F00000237B603B461946054802F0E9F9034697
:10220000002B01D0FFF7C1FD00BF1837BD4680BDD0
:102210006402002080B58CB000AF07F10C032422CB
:102220000021184604F0A0F93B1D00221A605A60F4
:10223000204B214A1A601F4B00225A601D4B00227E
:102240009A601C4B4FF6FF72DA601A4B00221A613B
:10225000184B00229A610323FB6000233B6101239A
:102260007B610023BB610A23FB6100233B620123E6
:102270007B620023BB620A23FB6207F10C03194651
:102280000C4801F027FB0346002B01D0FFF77DFD32
:1022900000237B600023BB603B1D1946054802F00C
:1022A00097F90346002B01D0FFF76FFD00BF3037D1
:1022B000BD4680BDAC0200200004004080B58CB05B
:1022C00000AF07F10C0324220021184604F04CF95A
:1022D0003B1D00221A605A60204B214A1A601F4B96
:1022E00000225A601D4B00229A601C4B4FF6FF7271
:1022F000DA601A4B00221A61184B00229A610323FC
:10230000FB6000233B6101237B610023BB610A2347
:10231000FB6100233B6201237B620023BB620A2333
:10232000FB6207F10C0319460C4801F0D3FA03468F
:10233000002B01D0FFF729FD00237B600023BB6049
:102340003B1D1946054802F043F90346002B01D016
:10235000FFF71BFD00BF3037BD4680BDF4020020F3
:102360000008004080B584B000AF78607B681B68CF
:10237000194A93422BD1194B9B69184A43F40063C5
:102380009361164B9B6903F40063FB60FB680022BA
:102390000021182000F069FA182000F082FA0022CB
:1023A0000021192000F061FA192000F07AFA0022C9
:1023B00000211A2000F059FA1A2000F072FA0022C7
:1023C00000211B2000F051FA1B2000F06AFA00BF28
:1023D0001037BD4680BD00BF002C014000100240F8
:1023E00080B584B000AF78607B681B68B3F1804F24
:1023F00013D10C4BDB690B4A43F00103D361094B4A
:10240000DB6903F00103FB60FB68002200211C2054
:1024100000F02BFA1C2000F044FA00BF1037BD4634
:1024200080BD00BF0010024080B58AB000AF786068
:1024300007F1180300221A605A609A60DA607B681C
:102440001B682A4A934224D1294BDB69284A43F06E
:102450000203D361264BDB6903F002037B617B69D6
:10246000234B9B69224A43F004039361204B9B69F1
:1024700003F004033B613B69C023BB610023FB61A4
:1024800000233B6207F1180319461A4800F0CAFA04
:1024900028E07B681B68184A934223D1144BDB6900
:1024A000134A43F00403D361114BDB6903F00403C7
:1024B000FB60FB680E4B9B690D4A43F00803936178
:1024C0000B4B9B6903F00803BB60BB68C023BB6177
:1024D0000023FB6100233B6207F1180319460748FC
:1024E00000F0A0FA00BF2837BD4680BD00040040C0
:1024F000001002400008014000080040000C0140AC
:1025000080B588B000AF786007F1100300221A6030
:102510005A609A60DA607B681B68104A934218D14F
:102520000F4B9B690E4A43F0040393610C4B9B696C
:1025300003F00403FB60FB684FF410633B6102236C
:102540007B610223FB6107F110031946054800F087
:1025500069FA00BF2037BD4680BD00BF002C014096
:10256000001002400008014080B500AF114B124A34
:102570001A60104B4FF4E1325A600E4B00229A6001
:102580000C4B0022DA600B4B00221A61094B0C2223
:102590005A61084B00229A61064B0022DA61054815
:1025A00002F0D7F80346002B01D0FFF7EEFB00BF87
:1025B00080BD00BF3C0300200038014080B588B0DA
:1025C00000AF786007F1100300221A605A609A6029
:1025D000DA607B681B68204A934239D11F4B9B69A4
:1025E0001E4A43F4804393611C4B9B6903F4804370
:1025F000FB60FB68194B9B69184A43F00403936125
:10260000164B9B6903F00403BB60BB684FF4007377
:102610003B6102237B610323FB6107F11003194631
:102620000F4800F0FFF94FF480633B6100237B61AA
:102630000023BB6107F110031946094800F0F2F9C5
:1026400000220021252000F010F9252000F029F9B2
:1026500000BF2037BD4680BD003801400010024059
:1026600000080140FFF7F4FC0B480C490C4A00231A
:1026700002E0D458C4500433C4188C42F9D3094A38
:10268000094C002301E013600432A242FBD303F0A3
:10269000C3FFFFF703FB704700000020E4010020A8
:1026A000E08B0008E4010020FC040020FEE70000AD
:1026B00080B500AF084B1B68074A43F01003136056
:1026C000032000F0C7F80F20FEF73EFFFFF764FB82
:1026D0000023184680BD00BF0020024080B400AF38
:1026E000054B1B781A46054B1B681344034A1360BD
:1026F00000BFBD4680BC7047080000208403002056
:1027000080B485B000AF78607B6803F00703FB609E
:102710000C4BDB68BB60BA684FF6FF031340BB602D
:10272000FB681A02BB68134343F0BF6343F40033F2
:10273000BB60044ABB68D36000BF1437BD4680BC91
:10274000704700BF00ED00E080B400AF044BDB68D1
:102750001B0A03F007031846BD4680BC704700BF44
:1027600000ED00E080B483B000AF0346FB7197F941
:102770000730002B0BDBFB7903F01F02064997F9AA
:1027800007305B09012000FA02F241F8232000BF64
:102790000C37BD4680BC704700E100E080B483B0D8
:1027A00000AF03463960FB7197F90730002B0ADB55
:1027B0003B68DAB20C4997F907301201D2B20B44E8
:1027C00083F800230AE03B68DAB20849FB7903F09A
:1027D0000F03043B1201D2B20B441A7600BF0C3730
:1027E000BD4680BC704700BF00E100E000ED00E0A6
:1027F00080B489B000AFF860B9607A60FB6803F01C
:102800000703FB61FB69C3F10703042B28BF042303
:10281000BB61FB690433062B02D9FB69033B00E073
:1028200000237B614FF0FF32BB6902FA03F3DA4306
:10283000BB681A407B699A404FF0FF317B6901FA0F
:1028400003F3D9437B680B40134318462437BD4636
:1028500080BC704780B582B000AF78607868FFF7C1
:102860004FFF00BF0837BD4680BD80B586B000AFC2
:102870000346B9607A60FB7300237B61FFF764FF56
:1028800078617A68B9687869FFF7B2FF024697F90C
:102890000F3011461846FFF781FF00BF1837BD46BD
:1028A00080BD80B582B000AF0346FB7197F9073059
:1028B0001846FFF757FF00BF0837BD4680BD80B4FC
:1028C00085B000AF78600023FB737B6893F82130FC
:1028D000DBB2022B08D07B6804229A637B6800225B
:1028E00083F82020012320E07B681B681A687B683E
:1028F0001B6822F00E021A607B681B681A687B68EE
:102900001B6822F001021A607B681A6C7B68DB6B23
:10291000012101FA02F25A607B68012283F821202A
:102920007B68002283F82020FB7B18461437BD46C5
:1029300080BC704780B584B000AF78600023FB7323
:102940007B6893F82130DBB2022B05D07B68042230
:102950009A630123FB7351E07B681B681A687B68EC
:102960001B6822F00E021A607B681B681A687B687D
:102970001B6822F001021A607B681B68224A93429E
:1029800029D07B681B68214A934222D07B681B6850
:102990001F4A93421AD07B681B681E4A934212D08A
:1029A0007B681B681C4A93420AD07B681B681B4AE1
:1029B000934202D14FF480130EE04FF080730BE08E
:1029C0004FF4803308E04FF4805305E04FF48073F8
:1029D00002E0102300E00123114A53607B680122CA
:1029E00083F821207B68002283F820207B685B6BC2
:1029F000002B03D07B685B6B78689847FB7B18469D
:102A00001037BD4680BD00BF080002401C000240D8
:102A10003000024044000240580002406C00024076
:102A20000000024080B48BB000AF786039600023B2
:102A30007B6200233B6269E101227B6A02FA03F3B5
:102A4000FB613B681B68FA691340BB61BA69FB69AB
:102A50009A4240F058813B685B689A4A93425ED044
:102A6000984A934275D8984A934258D0964A9342CE
:102A70006FD8964A934252D0944A934269D8944A66
:102A800093424CD0924A934263D8924A934246D0A2
:102A9000904A93425DD8122B2AD8122B59D801A202
:102AA00052F823F01F2B0008F92A00080B2B00080E
:102AB0004D2B0008532B0008532B0008532B000804
:102AC000532B0008532B0008532B0008532B0008EE
:102AD000532B0008532B0008532B0008532B0008DE
:102AE000532B0008532B0008012B0008152B00085E
:102AF000794A934213D02CE03B68DB683B6229E0C3
:102B00003B68DB6804333B6224E03B68DB680833E6
:102B10003B621FE03B68DB680C333B621AE03B68BA
:102B20009B68002B02D104233B6213E03B689B6847
:102B3000012B05D108233B627B68FA691A6109E021
:102B400008233B627B68FA695A6103E000233B6219
:102B500000E000BFBB69FF2B01D87B6801E07B6808
:102B600004337B61BB69FF2B02D87B6A9B0002E0C8
:102B70007B6A083B9B003B617B691A680F213B69BC
:102B800001FA03F3DB431A40396A3B6901FA03F3A4
:102B90001A437B691A603B685B6803F08053002B23
:102BA00000F0B1804D4B9B694C4A43F001039361A7
:102BB0004A4B9B6903F00103BB60BB68484A7B6AD0
:102BC0009B08023352F82330FB607B6A03F0030357
:102BD0009B000F2202FA03F3DB43FA681340FB6009
:102BE0007B68404A934213D07B683F4A93420DD0A2
:102BF0007B683E4A934207D07B683D4A934201D1AD
:102C0000032306E0042304E0022302E0012300E0A2
:102C100000237A6A02F0030292009340FA68134399
:102C2000FB602F497B6A9B080233FA6841F8232036
:102C30003B685B6803F48013002B06D02D4B9A6829
:102C40002C49BB6913438B6006E02A4B9A68BB6929
:102C5000DB43284913408B603B685B6803F4001337
:102C6000002B06D0234BDA682249BB691343CB60A3
:102C700006E0204BDA68BB69DB431E491340CB609A
:102C80003B685B6803F40033002B06D0194B5A688D
:102C90001849BB6913434B6006E0164B5A68BB6981
:102CA000DB43144913404B603B685B6803F480339B
:102CB000002B21D00F4B1A680E49BB6913430B60E0
:102CC00021E000BF0000321000003110000022108F
:102CD000000021100000121000001110001002402E
:102CE0000000014000080140000C014000100140BC
:102CF00000140140000401400B4B1A68BB69DB4320
:102D0000094913400B607B6A01337B623B681A6898
:102D10007B6A22FA03F3002B7FF48EAE00BF00BF64
:102D20002C37BD4680BC70470004014080B485B09C
:102D300000AF78600B467B807B689A687B88134085
:102D4000002B02D00123FB7301E00023FB73FB7B0C
:102D500018461437BD4680BC704780B483B000AFBE
:102D600078600B467B8013467B707B78002B03D00A
:102D70007A887B681A6103E07B881A047B681A6191
:102D800000BF0C37BD4680BC7047000080B586B0E0
:102D900000AF78607B68002B01D1012372E27B6871
:102DA0001B6803F00103002B00F08780924B5B68E7
:102DB00003F00C03042B0CD08F4B5B6803F00C0367
:102DC000082B12D18C4B5B6803F48033B3F5803F42
:102DD0000BD1894B1B6803F40033002B6CD07B684C
:102DE0005B68002B68D101234CE27B685B68B3F51C
:102DF000803F06D1804B1B687F4A43F480331360C9
:102E00002EE07B685B68002B0CD17B4B1B687A4AF9
:102E100023F480331360784B1B68774A23F48023B4
:102E200013601DE07B685B68B3F5A02F0CD1724B7B
:102E30001B68714A43F4802313606F4B1B686E4A12
:102E400043F4803313600BE06B4B1B686A4A23F436
:102E500080331360684B1B68674A23F48023136038
:102E60007B685B68002B13D0FEF79AFB386108E0A3
:102E7000FEF796FB02463B69D31A642B01D9032364
:102E800000E25D4B1B6803F40033002BF0D014E02C
:102E9000FEF786FB386108E0FEF782FB02463B69DD
:102EA000D31A642B01D90323ECE1534B1B6803F4C1
:102EB0000033002BF0D100E000BF7B681B6803F0FB
:102EC0000203002B63D04C4B5B6803F00C03002B18
:102ED0000BD0494B5B6803F00C03082B1CD1464B0D
:102EE0005B6803F48033002B16D1434B1B6803F05F
:102EF0000203002B05D07B681B69012B01D0012345
:102F0000C0E13D4B1B6823F0F8027B685B69DB0086
:102F1000394913430B603AE07B681B69002B20D0D2
:102F2000364B01221A60FEF73BFB386108E0FEF7E2
:102F300037FB02463B69D31A022B01D90323A1E1D7
:102F40002D4B1B6803F00203002BF0D02A4B1B68AB
:102F500023F0F8027B685B69DB00274913430B60B1
:102F600015E0264B00221A60FEF71AFB386108E0D4
:102F7000FEF716FB02463B69D31A022B01D9032345
:102F800080E11D4B1B6803F00203002BF0D17B682E
:102F90001B6803F00803002B3AD07B689B69002B69
:102FA00019D0174B01221A60FEF7FAFA386108E0CF
:102FB000FEF7F6FA02463B69D31A022B01D9032326
:102FC00060E10D4B5B6A03F00203002BF0D001209F
:102FD00000F0CEFA1CE00A4B00221A60FEF7E0FA7D
:102FE00038610FE0FEF7DCFA02463B69D31A022B88
:102FF00008D9032346E100BF00100240000042420E
:1030000080044242924B5B6A03F00203002BE9D139
:103010007B681B6803F00403002B00F0A6800023EC
:10302000FB758B4BDB6903F08053002B0DD1884B74
:10303000DB69874A43F08053D361854BDB6903F03A
:103040008053BB60BB680123FB75824B1B6803F494
:103050008073002B18D17F4B1B687E4A43F480732A
:103060001360FEF79DFA386108E0FEF799FA024610
:103070003B69D31A642B01D9032303E1754B1B6809
:1030800003F48073002BF0D07B68DB68012B06D142
:103090006F4B1B6A6E4A43F0010313622DE07B689D
:1030A000DB68002B0CD16A4B1B6A694A23F00103D1
:1030B0001362674B1B6A664A23F0040313621CE029
:1030C0007B68DB68052B0CD1614B1B6A604A43F0BF
:1030D000040313625E4B1B6A5D4A43F001031362F3
:1030E0000BE05B4B1B6A5A4A23F001031362584BF7
:1030F0001B6A574A23F0040313627B68DB68002BCA
:1031000015D0FEF74DFA38610AE0FEF749FA02469B
:103110003B69D31A41F28832934201D90323B1E0CB
:103120004B4B1B6A03F00203002BEED014E0FEF7BA
:1031300037FA38610AE0FEF733FA02463B69D31AE0
:1031400041F28832934201D903239BE0404B1B6A32
:1031500003F00203002BEED1FB7D012B05D13C4B8C
:10316000DB693B4A23F08053D3617B68DB69002B2A
:1031700000F08780364B5B6803F00C03082B61D0AE
:103180007B68DB69022B46D1334B00221A60FEF7C5
:1031900007FA386108E0FEF703FA02463B69D31AE2
:1031A000022B01D903236DE0294B1B6803F0007348
:1031B000002BF0D17B681B6AB3F5803F08D1244B0C
:1031C0005B6823F400327B689B68214913434B60A2
:1031D0001F4B5B6823F474127B68196A7B685B6A17
:1031E0000B431B4913434B601B4B01221A60FEF734
:1031F000D7F9386108E0FEF7D3F902463B69D31AE4
:10320000022B01D903233DE0114B1B6803F000732F
:10321000002BF0D035E0104B00221A60FEF7C0F909
:10322000386108E0FEF7BCF902463B69D31A022B6D
:1032300001D9032326E0064B1B6803F00073002B23
:10324000F0D11EE07B68DB69012B07D1012319E077
:103250000010024000700040600042420B4B5B686F
:10326000FB60FB6803F480327B681B6A9A4206D1DC
:10327000FB6803F470127B685B6A9A4201D00123F9
:1032800000E0002318461837BD4680BD00100240FC
:1032900080B584B000AF786039607B68002B01D1C5
:1032A0000123D0E06A4B1B6803F007033A689A4297
:1032B00010D9674B1B6823F0070265493B6813432D
:1032C0000B60634B1B6803F007033A689A4201D016
:1032D0000123B8E07B681B6803F00203002B20D0B9
:1032E0007B681B6803F00403002B05D0594B5B6817
:1032F000584A43F4E06353607B681B6803F008039B
:10330000002B05D0534B5B68524A43F46053536023
:10331000504B5B6823F0F0027B689B684D49134378
:103320004B607B681B6803F00103002B40D07B6877
:103330005B68012B07D1474B1B6803F40033002B5C
:1033400015D101237FE07B685B68022B07D1414BDD
:103350001B6803F00073002B09D1012373E03D4B80
:103360001B6803F00203002B01D101236BE0394BF2
:103370005B6823F003027B685B68364913434B604C
:10338000FEF70EF9F8600AE0FEF70AF90246FB685C
:10339000D31A41F28832934201D9032353E02D4BD3
:1033A0005B6803F00C027B685B689B009A42EBD180
:1033B000274B1B6803F007033A689A4210D2244B4C
:1033C0001B6823F0070222493B6813430B60204B24
:1033D0001B6803F007033A689A4201D0012332E0E8
:1033E0007B681B6803F00403002B08D0194B5B6853
:1033F00023F4E0627B68DB68164913434B607B680B
:103400001B6803F00803002B09D0124B5B6823F400
:1034100060527B681B69DB000E4913434B6000F070
:1034200021F802460B4B5B681B0903F00F030A49A6
:10343000CB5C22FA03F3094A1360094B1B68184658
:10344000FEF782F8002318461037BD4680BD00BF46
:103450000020024000100240B08700080000002059
:103460000400002080B487B000AF0023FB6000237D
:10347000BB6000237B6100237B6000233B611E4B0C
:103480005B68FB60FB6803F00C03042B02D0082B85
:1034900003D027E0194B3B6127E0FB689B0C03F04E
:1034A0000F03174AD35C7B60FB6803F48033002B67
:1034B00010D0114B5B685B0C03F00103114AD35C25
:1034C000BB607B680D4A03FB02F2BB68B2FBF3F3FF
:1034D0007B6104E07B680C4A02FB03F37B617B6940
:1034E0003B6102E0054B3B6100BF3B6918461C375E
:1034F000BD4680BC704700BF0010024000127A0039
:10350000C8870008D887000800093D0080B400AFD4
:10351000024B1B681846BD4680BC70470000002067
:1035200080B500AFFFF7F2FF0246054B5B681B0A50
:1035300003F007030349CB5C22FA03F3184680BD6E
:1035400000100240C087000880B500AFFFF7DEFF23
:103550000246054B5B68DB0A03F007030349CB5CBB
:1035600022FA03F3184680BD00100240C08700080D
:1035700080B485B000AF78600A4B1B680A4AA2FB92
:1035800003235B0A7A6802FB03F3FB6000BFFB685E
:103590005A1EFA60002BF9D100BF00BF1437BD4698
:1035A00080BC704700000020D34D621080B582B00F
:1035B00000AF78607B68002B01D1012341E07B687C
:1035C00093F83D30DBB2002B06D17B68002283F8F4
:1035D0003C207868FEF704FF7B68022283F83D20D8
:1035E0007B681A687B6804331946104600F040FD7A
:1035F0007B68012283F846207B68012283F83E2005
:103600007B68012283F83F207B68012283F84020F9
:103610007B68012283F841207B68012283F84220E5
:103620007B68012283F843207B68012283F84420D1
:103630007B68012283F845207B68012283F83D20C6
:10364000002318460837BD4680BD000080B485B011
:1036500000AF78607B6893F83D30DBB2012B01D07E
:1036600001233AE07B68022283F83D207B681B68D7
:10367000DA687B681B6842F00102DA607B681B68CD
:10368000184A93420ED07B681B68B3F1804F09D073
:103690007B681B68144A934204D07B681B68134AFA
:1036A000934211D17B681B689B6803F00703FB60A2
:1036B000FB68062B10D07B681B681A687B681B6848
:1036C00042F001021A6007E07B681B681A687B6899
:1036D0001B6842F001021A60002318461437BD46E9
:1036E00080BC7047002C01400004004000080040EE
:1036F00080B582B000AF78607B68002B01D10123D8
:1037000041E07B6893F83D30DBB2002B06D17B684B
:10371000002283F83C207868FEF724FE7B680222B2
:1037200083F83D207B681A687B680433194610468D
:1037300000F09EFC7B68012283F846207B68012212
:1037400083F83E207B68012283F83F207B680122BA
:1037500083F840207B68012283F841207B680122A6
:1037600083F842207B68012283F843207B68012292
:1037700083F844207B68012283F845207B6801227E
:1037800083F83D20002318460837BD4680BD000061
:1037900080B584B000AF786039603B68002B09D1F8
:1037A0007B6893F83E30DBB2012B14BF012300236A
:1037B000DBB222E03B68042B09D17B6893F83F30F1
:1037C000DBB2012B14BF01230023DBB215E03B6801
:1037D000082B09D17B6893F84030DBB2012B14BF72
:1037E00001230023DBB208E07B6893F84130DBB2B1
:1037F000012B14BF01230023DBB2002B01D00123D6
:103800005EE03B68002B04D17B68022283F83E20F7
:1038100013E03B68042B04D17B68022283F83F202D
:103820000BE03B68082B04D17B68022283F8402020
:1038300003E07B68022283F841207B681B68012239
:103840003968184600F0A0FE7B681B681E4A934248
:1038500007D17B681B685A6C7B681B6842F4004286
:103860005A647B681B68184A93420ED07B681B68B9
:10387000B3F1804F09D07B681B68144A934204D08F
:103880007B681B68124A934211D17B681B689B6856
:1038900003F00703FB60FB68062B10D07B681B68F6
:1038A0001A687B681B6842F001021A6007E07B68B7
:1038B0001B681A687B681B6842F001021A600023CB
:1038C00018461037BD4680BD002C01400004004062
:1038D0000008004080B586B000AF786039607B6832
:1038E000002B01D1012393E07B6893F83D30DBB2DC
:1038F000002B06D17B68002283F83C207868FEF715
:1039000093FD7B68022283F83D207B681B689B68DF
:103910007A68126823F4804323F0070393607B687E
:103920001A687B6804331946104600F0A1FB7B68D7
:103930001B689B687B617B681B689B693B617B683C
:103940001B681B6AFB603B681B687A6913437B61D9
:103950003B6923F4407323F003033B613B689A689F
:103960003B689B691B0213433A6913433B613B6904
:1039700023F4406323F00C033B613B6923F4704361
:1039800023F0F0033B613B68DA683B68DB691B02AC
:1039900013433A6913433B613B681B691A013B6857
:1039A0001B6A1B0313433A6913433B61FB6823F013
:1039B0002203FB603B685A683B685B691B01134349
:1039C000FA681343FB607B681B687A699A607B68BE
:1039D0001B683A699A617B681B68FA681A627B689F
:1039E000012283F846207B68012283F83E207B6811
:1039F000012283F83F207B68012283F842207B6804
:103A0000012283F843207B68012283F83D200023B4
:103A100018461837BD4680BD80B584B000AF7860C9
:103A200039607B6893F83E30FB737B6893F83F30D6
:103A3000BB737B6893F842307B737B6893F84330A9
:103A40003B733B68002B10D1FB7B012B02D17B7BAE
:103A5000012B01D0012369E07B68022283F83E201C
:103A60007B68022283F8422031E03B68042B10D1AE
:103A7000BB7B012B02D13B7B012B01D0012355E005
:103A80007B68022283F83F207B68022283F8432070
:103A90001DE0FB7B012B08D1BB7B012B05D17B7B80
:103AA000012B02D13B7B012B01D001233EE07B683F
:103AB000022283F83E207B68022283F83F207B6845
:103AC000022283F842207B68022283F843203B686D
:103AD000002B03D03B68042B08D00FE07B681B68E9
:103AE00001220021184600F04FFD16E07B681B689C
:103AF00001220421184600F047FD0EE07B681B6898
:103B000001220021184600F03FFD7B681B6801225E
:103B10000421184600F038FD00BF7B681B681A6856
:103B20007B681B6842F001021A60002318461037B8
:103B3000BD4680BD80B584B000AF78607B681B68EF
:103B4000DB68FB607B681B681B69BB60BB6803F0BC
:103B50000203002B20D0FB6803F00203002B1BD0D4
:103B60007B681B686FF002021A617B6801221A777A
:103B70007B681B689B6903F00303002B03D0786804
:103B800000F05AFA05E0786800F04DFA786800F025
:103B90005CFA7B6800221A77BB6803F00403002BF1
:103BA00020D0FB6803F00403002B1BD07B681B684C
:103BB0006FF004021A617B6802221A777B681B6827
:103BC0009B6903F44073002B03D0786800F034FA4B
:103BD00005E0786800F027FA786800F036FA7B682C
:103BE00000221A77BB6803F00803002B20D0FB6883
:103BF00003F00803002B1BD07B681B686FF00802E2
:103C00001A617B6804221A777B681B68DB6903F002
:103C10000303002B03D0786800F00EFA05E0786803
:103C200000F001FA786800F010FA7B6800221A7739
:103C3000BB6803F01003002B20D0FB6803F01003D7
:103C4000002B1BD07B681B686FF010021A617B6829
:103C500008221A777B681B68DB6903F44073002B2A
:103C600003D0786800F0E8F905E0786800F0DBF947
:103C7000786800F0EAF97B6800221A77BB6803F0E5
:103C80000103002B0CD0FB6803F00103002B07D0CD
:103C90007B681B686FF001021A617868FDF718FAFB
:103CA000BB6803F08003002B0CD0FB6803F080039B
:103CB000002B07D07B681B686FF080021A61786860
:103CC00000F03EFDBB6803F04003002B0CD0FB6806
:103CD00003F04003002B07D07B681B686FF04002A5
:103CE0001A61786800F0BAF9BB6803F02003002B72
:103CF0000CD0FB6803F02003002B07D07B681B6807
:103D00006FF020021A61786800F011FD00BF1037D3
:103D1000BD4680BD80B586B000AFF860B9607A60FE
:103D20000023FB75FB6893F83C30012B01D1022383
:103D3000AEE0FB68012283F83C207B680C2B00F28C
:103D40009F8001A252F823F07D3D0008813E0008CB
:103D5000813E0008813E0008BD3D0008813E00080C
:103D6000813E0008813E0008FF3D0008813E0008BA
:103D7000813E0008813E00083F3E0008FB681B684A
:103D8000B968184600F0E2F9FB681B689A69FB689D
:103D90001B6842F008029A61FB681B689A69FB681D
:103DA0001B6822F004029A61FB681B689969BB6872
:103DB0001A69FB681B680A439A6164E0FB681B6828
:103DC000B968184600F028FAFB681B689A69FB6816
:103DD0001B6842F400629A61FB681B689A69FB6881
:103DE0001B6822F480629A61FB681B689969BB6852
:103DF0001B691A02FB681B680A439A6143E0FB686F
:103E00001B68B968184600F071FAFB681B68DA692C
:103E1000FB681B6842F00802DA61FB681B68DA691C
:103E2000FB681B6822F00402DA61FB681B68D96931
:103E3000BB681A69FB681B680A43DA6123E0FB6808
:103E40001B68B968184600F0BBFAFB681B68DA69A2
:103E5000FB681B6842F40062DA61FB681B68DA6980
:103E6000FB681B6822F48062DA61FB681B68D96911
:103E7000BB681B691A02FB681B680A43DA6102E02F
:103E80000123FB7500BFFB68002283F83C20FB7D0B
:103E900018461837BD4680BD80B584B000AF786045
:103EA00039600023FB737B6893F83C30012B01D110
:103EB0000223B4E07B68012283F83C207B68022265
:103EC00083F83D207B681B689B68BB60BB6823F060
:103ED0007703BB60BB6823F47F43BB607B681B68D0
:103EE000BA689A603B681B68B3F5005F3ED0B3F5D3
:103EF000005F00F28780B3F5805F00F08680B3F545
:103F0000805F7FD8702B1AD0702B7BD8602B50D05D
:103F1000602B77D8502B3CD0502B73D8402B58D0E7
:103F2000402B6FD8302B64D0302B6BD8202B60D037
:103F3000202B67D8002B5CD0102B5AD062E07B6816
:103F400018683B6899683B685A683B68DB6800F012
:103F5000FCFA7B681B689B68BB60BB6843F0770317
:103F6000BB607B681B68BA689A604FE07B68186822
:103F70003B6899683B685A683B68DB6800F0E5FA83
:103F80007B681B689A687B681B6842F480429A6071
:103F90003CE07B6818683B6859683B68DB681A46F8
:103FA00000F05CFA7B681B685021184600F0B3FAF9
:103FB0002CE07B6818683B6859683B68DB681A46E8
:103FC00000F07AFA7B681B686021184600F0A3FABB
:103FD0001CE07B6818683B6859683B68DB681A46D8
:103FE00000F03CFA7B681B684021184600F093FA09
:103FF0000CE07B681A683B681B681946104600F0A5
:104000008AFA03E00123FB7300E000BF7B68012212
:1040100083F83D207B68002283F83C20FB7B184618
:104020001037BD4680BD80B483B000AF786000BF5C
:104030000C37BD4680BC704780B483B000AF786059
:1040400000BF0C37BD4680BC704780B483B000AF62
:10405000786000BF0C37BD4680BC704780B483B029
:1040600000AF786000BF0C37BD4680BC70470000D1
:1040700080B485B000AF786039607B681B68FB60F6
:104080007B682F4A93420BD07B68B3F1804F07D0F7
:104090007B682C4A934203D07B682B4A934208D119
:1040A000FB6823F07003FB603B685B68FA681343AE
:1040B000FB607B68224A93420BD07B68B3F1804F50
:1040C00007D07B681F4A934203D07B681E4A934205
:1040D00008D1FB6823F44073FB603B68DB68FA6837
:1040E0001343FB60FB6823F080023B685B6913436A
:1040F000FB607B68FA681A603B689A687B68DA62E2
:104100003B681A687B689A627B680D4A934203D1C8
:104110003B681A697B681A637B6801225A617B6875
:104120001B6903F00103002B05D07B681B6923F09A
:1041300001027B681A6100BF1437BD4680BC70471E
:10414000002C0140000400400008004080B487B00B
:1041500000AF786039607B681B6A7B617B681B6A93
:1041600023F001027B681A627B685B683B617B68B5
:104170009B69FB60FB6823F07003FB60FB6823F026
:104180000303FB603B681B68FA681343FB607B69B1
:1041900023F002037B613B689B687A6913437B6170
:1041A0007B681C4A93420CD17B6923F008037B6136
:1041B0003B68DB687A6913437B617B6923F0040306
:1041C0007B617B68134A934211D13B6923F480736E
:1041D0003B613B6923F400733B613B685B693A696F
:1041E00013433B613B689B693A6913433B617B68BE
:1041F0003A695A607B68FA689A613B685A687B68DA
:104200005A637B687A691A6200BF1C37BD4680BC5E
:10421000704700BF002C014080B487B000AF7860C9
:1042200039607B681B6A7B617B681B6A23F0100224
:104230007B681A627B685B683B617B689B69FB609B
:10424000FB6823F4E043FB60FB6823F44073FB60EE
:104250003B681B681B02FA681343FB607B6923F011
:1042600020037B613B689B681B017A6913437B6178
:104270007B681D4A93420DD17B6923F080037B61EB
:104280003B68DB681B017A6913437B617B6923F020
:1042900040037B617B68144A934213D13B6923F44A
:1042A00080633B613B6923F400633B613B685B696E
:1042B0009B003A6913433B613B689B699B003A69E9
:1042C00013433B617B683A695A607B68FA689A617C
:1042D0003B685A687B689A637B687A691A6200BF98
:1042E0001C37BD4680BC7047002C014080B487B0AD
:1042F00000AF786039607B681B6A7B617B681B6AF2
:1043000023F480727B681A627B685B683B617B6820
:10431000DB69FB60FB6823F07003FB60FB6823F044
:104320000303FB603B681B68FA681343FB607B690F
:1043300023F400737B613B689B681B027A6913431B
:104340007B617B681D4A93420DD17B6923F4006336
:104350007B613B68DB681B027A6913437B617B6985
:1043600023F480637B617B68144A934213D13B69D9
:1043700023F480533B613B6923F400533B613B686A
:104380005B691B013A6913433B613B689B691B01F5
:104390003A6913433B617B683A695A607B68FA6803
:1043A000DA613B685A687B68DA637B687A691A620B
:1043B00000BF1C37BD4680BC704700BF002C0140C9
:1043C00080B487B000AF786039607B681B6A3B615E
:1043D0007B681B6A23F480527B681A627B685B6887
:1043E0007B617B68DB69FB60FB6823F4E043FB6077
:1043F000FB6823F44073FB603B681B681B02FA6890
:104400001343FB603B6923F400533B613B689B68AB
:104410001B033A6913433B617B680F4A934209D1FE
:104420007B6923F480437B613B685B699B017A690C
:1044300013437B617B687A695A607B68FA68DA614A
:104440003B685A687B681A647B683A691A6200BFE5
:104450001C37BD4680BC7047002C014080B487B03B
:1044600000AFF860B9607A60FB681B6A7B61FB682B
:104470001B6A23F00102FB681A62FB689B693B61BF
:104480003B6923F0F0033B617B681B013A691343EE
:104490003B617B6923F00A037B617A69BB68134344
:1044A0007B61FB683A699A61FB687A691A6200BFAE
:1044B0001C37BD4680BC704780B487B000AFF86041
:1044C000B9607A60FB681B6A7B61FB681B6A23F03A
:1044D0001002FB681A62FB689B693B613B6923F42D
:1044E00070433B617B681B033A6913433B617B6903
:1044F00023F0A0037B61BB681B017A6913437B61D6
:10450000FB683A699A61FB687A691A6200BF1C37D6
:10451000BD4680BC704780B485B000AF786039601C
:104520007B689B68FB60FB6823F07003FB603A6864
:10453000FB68134343F00703FB607B68FA689A60EB
:1045400000BF1437BD4680BC704780B487B000AF51
:10455000F860B9607A603B60FB689B687B617B694F
:1045600023F47F437B613B681A027B681A43BB6874
:1045700013437A6913437B61FB687A699A6000BFD1
:104580001C37BD4680BC704780B487B000AFF86070
:10459000B9607A60BB6803F01F03012202FA03F3DB
:1045A0007B61FB681A6A7B69DB431A40FB681A620D
:1045B000FB681A6ABB6803F01F03796801FA03F30A
:1045C0001A43FB681A6200BF1C37BD4680BC7047A7
:1045D00080B485B000AF786039607B6893F83C3078
:1045E000012B01D1022346E07B68012283F83C20A5
:1045F0007B68022283F83D207B681B685B68FB6058
:104600007B681B689B68BB60FB6823F07003FB60E2
:104610003B681B68FA681343FB607B681B68FA6899
:104620005A607B681B68164A93420ED07B681B68F1
:10463000B3F1804F09D07B681B68124A934204D0C3
:104640007B681B68104A93420CD1BB6823F080033F
:10465000BB603B685B68BA681343BB607B681B68E0
:10466000BA689A607B68012283F83D207B6800224B
:1046700083F83C20002318461437BD4680BC7047A1
:10468000002C0140000400400008004080B485B0C8
:1046900000AF786039600023FB607B6893F83C30A2
:1046A000012B01D102233DE07B68012283F83C20ED
:1046B000FB6823F0FF023B68DB681343FB60FB6889
:1046C00023F440723B689B681343FB60FB6823F450
:1046D00080623B685B681343FB60FB6823F4006205
:1046E0003B681B681343FB60FB6823F480523B6804
:1046F0001B691343FB60FB6823F400523B685B6952
:104700001343FB60FB6823F480423B68DB6913437F
:10471000FB607B681B68FA685A647B68002283F838
:104720003C20002318461437BD4680BC704780B437
:1047300083B000AF786000BF0C37BD4680BC7047C7
:1047400080B483B000AF786000BF0C37BD4680BC3A
:10475000704780B582B000AF78607B68002B01D1D4
:10476000012342E07B6893F84130DBB2002B06D195
:104770007B68002283F840207868FDF71FFF7B6884
:10478000242283F841207B681B68DA687B681B68F9
:1047900022F40052DA60786800F062FD7B681B68E2
:1047A0001A697B681B6822F490421A617B681B6857
:1047B0005A697B681B6822F02A025A617B681B6871
:1047C000DA687B681B6842F40052DA607B6800227A
:1047D0005A647B68202283F841207B68202283F87A
:1047E00042207B6800225A63002318460837BD46E2
:1047F00080BD80B58AB002AFF860B9603B601346F7
:10480000FB8000237B61FB6893F84130DBB2202BF7
:1048100075D1BB68002B02D0FB88002B01D101238E
:104820006EE0FB6800225A64FB68212283F8412075
:10483000FCF7B6FE7861FB68FA889A84FB68FA8810
:10484000DA84FB689B68B3F5805F08D1FB681B695D
:10485000002B04D10023FB61BB68BB6103E0BB6894
:10486000FB610023BB612EE03B6800937B69002263
:104870008021F86800F000FB0346002B05D0FB68A0
:10488000202283F8412003233AE0FB69002B0BD15F
:10489000BB691B881A46FB681B68C2F308025A6092
:1048A000BB690233BB6107E0FB691A78FB681B68D0
:1048B0005A60FB690133FB61FB68DB8C9BB2013BF7
:1048C0009AB2FB68DA84FB68DB8C9BB2002BCBD1FD
:1048D0003B6800937B6900224021F86800F0CCFA25
:1048E0000346002B05D0FB68202283F841200323D8
:1048F00006E0FB68202283F84120002300E0022329
:1049000018462037BD4680BD80B5BAB000AF78608C
:104910007B681B681B68C7F8E4307B681B68DB6832
:10492000C7F8E0307B681B685B69C7F8DC300023A0
:10493000C7F8D8300023C7F8D430D7F8E43003F0F4
:104940000F03C7F8D830D7F8D830002B0FD1D7F8DD
:10495000E43003F02003002B09D0D7F8E03003F057
:104960002003002B03D0786800F0BCFB5BE2D7F893
:10497000D830002B00F0DE80D7F8DC3003F00103E4
:10498000002B06D1D7F8E03003F49073002B00F031
:10499000D180D7F8E43003F00103002B0BD0D7F817
:1049A000E03003F48073002B05D07B685B6C43F030
:1049B00001027B685A64D7F8E43003F00403002B4B
:1049C0000BD0D7F8DC3003F00103002B05D07B6857
:1049D0005B6C43F002027B685A64D7F8E43003F062
:1049E0000203002B0BD0D7F8DC3003F00103002BBF
:1049F00005D07B685B6C43F004027B685A64D7F88F
:104A0000E43003F00803002B11D0D7F8E03003F0B6
:104A10002003002B05D1D7F8DC3003F00103002B75
:104A200005D07B685B6C43F008027B685A647B6846
:104A30005B6C002B00F0F281D7F8E43003F0200328
:104A4000002B08D0D7F8E03003F02003002B02D071
:104A5000786800F047FB7B681B685B6903F04003E4
:104A6000002B14BF01230023DBB2C7F8D4307B68CE
:104A70005B6C03F00803002B03D1D7F8D430002B74
:104A80004FD0786800F051FA7B681B685B6903F0CF
:104A90004003002B41D07B681B681433C7F89C305F
:104AA000D7F89C3053E8003FC7F89830D7F89830D3
:104AB00023F04003C7F8D0307B681B681433D7F865
:104AC000D020C7F8A820C7F8A430D7F8A410D7F88A
:104AD000A82041E80023C7F8A030D7F8A030002B69
:104AE000D9D17B68DB6B002B13D07B68DB6B7E4AF4
:104AF0005A637B68DB6B1846FDF71CFF0346002BEF
:104B000016D07B68DB6B5B6B7A68D26B104698477C
:104B10000EE0786800F09CF90AE0786800F098F9F7
:104B200006E0786800F094F97B6800225A6475E129
:104B300000BF73E17B681B6B012B40F04F81D7F8FE
:104B4000E43003F01003002B00F04881D7F8E03088
:104B500003F01003002B00F041810023BB607B6851
:104B60001B681B68BB607B681B685B68BB60BB68BD
:104B70007B681B685B6903F04003002B00F0B68084
:104B80007B68DB6B1B685B68A7F8BE30B7F8BE308C
:104B9000002B00F045817B689B8DB7F8BE209A42C0
:104BA00080F03E817B68B7F8BE20DA857B68DB6BDE
:104BB0009B69202B00F088807B681B680C33C7F84A
:104BC0008830D7F8883053E8003FC7F88430D7F8EA
:104BD000843023F48073C7F8B8307B681B680C33CB
:104BE000D7F8B820C7F89420C7F89030D7F89010BD
:104BF000D7F8942041E80023C7F88C30D7F88C30E0
:104C0000002BD9D17B681B6814337B677B6F53E81B
:104C1000003F3B673B6F23F00103C7F8B4307B686C
:104C20001B681433D7F8B420C7F88020FB67F96FEE
:104C3000D7F8802041E80023BB67BB6F002BE1D190
:104C40007B681B6814333B663B6E53E8003FFB6593
:104C5000FB6D23F04003C7F8B0307B681B6814334A
:104C6000D7F8B020FA66BB66B96EFA6E41E8002349
:104C70007B667B6E002BE3D17B68202283F8422089
:104C80007B6800221A637B681B680C33FB64FB6C37
:104C900053E8003FBB64BB6C23F01003C7F8AC3093
:104CA0007B681B680C33D7F8AC20BA657B65796DDF
:104CB000BA6D41E800233B653B6D002BE3D17B6877
:104CC000DB6B1846FDF7FBFD7B6802225A637B68AD
:104CD0009A8D7B68DB8D9BB2D31A9BB2194678689C
:104CE00000F0BFF89CE000BFEF4F00087B689A8D92
:104CF0007B68DB8D9BB2D31AA7F8CE307B68DB8D47
:104D00009BB2002B00F08E80B7F8CE30002B00F065
:104D100089807B681B680C33BB63BB6B53E8003F27
:104D20007B637B6B23F49073C7F8C8307B681B6888
:104D30000C33D7F8C8207A643B64396C7A6C41E84C
:104D40000023FB63FB6B002BE3D17B681B681433F0
:104D50007B627B6A53E8003F3B623B6A23F00103BE
:104D6000C7F8C4307B681B681433D7F8C4203A6393
:104D7000FB62F96A3A6B41E80023BB62BB6A002B15
:104D8000E3D17B68202283F842207B6800221A63EB
:104D90007B681B680C333B613B6953E8003FFB6059
:104DA000FB6823F01003C7F8C0307B681B680C3326
:104DB000D7F8C020FA61BB61B969FA6941E80023FC
:104DC0007B617B69002BE3D17B6802225A63B7F8D1
:104DD000CE301946786800F044F823E0D7F8E43084
:104DE00003F08003002B09D0D7F8E03003F08003F4
:104DF000002B03D0786800F00EF914E0D7F8E43007
:104E000003F04003002B0ED0D7F8E03003F040034E
:104E1000002B08D0786800F04DF904E000BF02E0F4
:104E200000BF00E000BFE837BD4680BD80B483B05E
:104E300000AF786000BF0C37BD4680BC704780B4BF
:104E400083B000AF786000BF0C37BD4680BC7047B0
:104E500080B483B000AF786000BF0C37BD4680BC23
:104E6000704780B483B000AF78600B467B8000BF92
:104E70000C37BD4680BC704780B586B000AFF86087
:104E8000B9603B601346FB713BE03B6AB3F1FF3F07
:104E900037D0FCF785FB02463B68D31A3A6A9A4240
:104EA00002D33B6A002B01D103233AE0FB681B6865
:104EB000DB6803F00403002B23D0BB68802B20D0D9
:104EC000BB68402B1DD0FB681B681B6803F0080300
:104ED000082B16D100237B61FB681B681B687B6174
:104EE000FB681B685B687B617B69F86800F01DF8F4
:104EF000FB6808225A64FB68002283F840200123E3
:104F00000FE0FB681B681A68BB681340BA689A42D6
:104F10000CBF01230023DBB21A46FB799A42B4D0BE
:104F2000002318461837BD4680BD80B495B000AF49
:104F300078607B681B680C337B637B6B53E8003FB6
:104F40003B633B6B23F49073FB647B681B680C33FF
:104F5000FA6C3A64FB63F96B3A6C41E80023BB637B
:104F6000BB6B002BE5D17B681B6814333B623B6A4B
:104F700053E8003FFB61FB6923F00103BB647B68DE
:104F80001B681433BA6CFA62BB62B96AFA6A41E808
:104F900000237B627B6A002BE5D17B681B6B012BB6
:104FA00019D17B681B680C33FB60FB6853E8003F3A
:104FB000BB60BB6823F010037B647B681B680C3309
:104FC0007A6CBA617B617969BA6941E800233B6117
:104FD0003B69002BE5D17B68202283F842207B6867
:104FE00000221A6300BF5437BD4680BC704780B5AD
:104FF00084B000AF78607B685B6AFB60FB6800226E
:10500000DA85FB680022DA84F868FFF721FF00BF29
:105010001037BD4680BD80B485B000AF78607B6836
:1050200093F84130DBB2212B3ED17B689B68B3F50E
:10503000805F14D17B681B69002B10D17B681B6AD1
:10504000FB60FB681B881A467B681B68C2F308027A
:105050005A607B681B6A9A1C7B681A6208E07B684E
:105060001B6A591C7A6811621A787B681B685A603F
:105070007B68DB8C9BB2013B9BB27A681946D1847A
:10508000002B0FD17B681B68DA687B681B6822F0F5
:105090008002DA607B681B68DA687B681B6842F014
:1050A0004002DA60002300E0022318461437BD46B0
:1050B00080BC704780B582B000AF78607B681B68A9
:1050C000DA687B681B6822F04002DA607B68202285
:1050D00083F841207868FFF7A9FE002318460837B7
:1050E000BD4680BD80B58CB000AF78607B6893F81A
:1050F0004230DBB2222B40F0AE807B689B68B3F578
:10510000805F17D17B681B69002B13D10023FB62E2
:105110007B689B6ABB627B681B685B689BB2C3F35E
:1051200008039AB2BB6A1A807B689B6A9A1C7B68E8
:105130009A6226E07B689B6AFB620023BB627B6805
:105140009B68B3F5805F07D07B689B68002B0AD112
:105150007B681B69002B06D17B681B685B68DAB231
:10516000FB6A1A7008E07B681B685B68DBB203F0BF
:105170007F03DAB2FB6A1A707B689B6A5A1C7B68F1
:105180009A627B68DB8D9BB2013B9BB27A681946C1
:10519000D185002B5DD17B681B68DA687B681B6852
:1051A00022F02002DA607B681B68DA687B681B6883
:1051B00022F48072DA607B681B685A697B681B681E
:1051C00022F001025A617B68202283F842207B682A
:1051D00000225A637B681B6B012B35D17B68002250
:1051E0001A637B681B680C337B617B6953E8003F63
:1051F0003B613B6923F010037B627B681B680C33C7
:105200007A6A3A62FB61F9693A6A41E80023BB6154
:10521000BB69002BE5D17B681B681B6803F010039A
:10522000102B0AD10023FB607B681B681B68FB60A6
:105230007B681B685B68FB60FB687B689B8D19461D
:105240007868FFF70EFE02E07868FFF7F8FD0023AC
:1052500002E0002300E0022318463037BD4680BD3F
:1052600080B584B000AF78607B681B681B6923F44D
:1052700040517B68DA687B681B680A431A617B6867
:105280009A687B681B691A437B685B691343BB6040
:105290007B681B68DB6823F4B05323F00C037A6847
:1052A0001268B9680B43D3607B681B685B6923F4A1
:1052B00040717B689A697B681B680A435A617B6806
:1052C0001B682C4A934203D1FEF73EF9F86002E0D6
:1052D000FEF726F9F860FA6813469B0013449A001B
:1052E0001A447B685B689B00B2FBF3F3224AA2FB83
:1052F00003235B091901FA6813469B0013449A00C3
:105300001A447B685B689B00B2FBF3F21A4BA3FB69
:1053100002035B09642000FB03F3D31A1B01323341
:10532000154AA2FB03235B0903F0F0031944FA6852
:1053300013469B0013449A001A447B685B689B00E9
:10534000B2FBF3F20C4BA3FB02035B09642000FBEE
:1053500003F3D31A1B013233074AA2FB03235B0971
:1053600003F00F027B681B680A449A6000BF103785
:10537000BD4680BD003801401F85EB51B0B5AEB0D1
:1053800004AFF860B9607A60B64BC7F8A4307B68A8
:10539000C7F89C304FF07E53C7F88C30D7F8A43054
:1053A00083F00043C7F890304FF00003C7F8943003
:1053B0004FF07E53C7F89830D7F8A430C7F8843040
:1053C0004FF00003C7F888304FF07E53FB674FF073
:1053D0000003C7F88030A44B07F16C040FCB84E8BE
:1053E0000F00A24BBB664FF07E53BB654FF000032E
:1053F000FB65D7F8A43083F000433B664FF07E5343
:105400007B664FF07E533B654FF000037B6507F1F1
:10541000480300221A605A6007F1400300221A6014
:105420005A6007F1300300221A605A609A60DA600D
:1054300007F1200300221A605A609A60DA6007F1CF
:10544000180300221A605A604FF000037B61FB686A
:1054500083F000431846FAF7E7FF04460D46B868A4
:10546000FAF7E2FF02460B462046294602F014FFF7
:1054700002460B4610461946FBF706FB0346C7F8E3
:10548000A03007F148030293794B019307F18C0395
:105490000093012302220221022000F049F907F1C2
:1054A0004003029307F19C03019307F184030093E7
:1054B000012301220121022000F03AF9BB6C3A6C71
:1054C00011461846FBF736FB03461A46694B1A602D
:1054D000FB6C7A6C11461846FBF72CFB03461A4608
:1054E000644B5A6007F130030293634B019307F159
:1054F0008C030093022302220221022000F018F9FB
:1055000007F12003029307F15803019307F13003D9
:105510000093022302220221022000F009F93B6AD3
:10552000FA6E11461846FBF705FB03461A46534B25
:105530001A607B6A3A6F11461846FBF7FBFA03467E
:105540001A464E4B5A60BB6A7A6F11461846FBF7F3
:10555000F1FA03461A46494B9A60FB6ABA6F114644
:105560001846FBF7E7FA03461A46444BDA6007F1A0
:1055700018030293414B019307F17C03009302232C
:1055800002220221012000F0D3F807F11403029354
:1055900007F15003019307F118030093012302223E
:1055A0000221012000F0C4F87B69BA6E114618464A
:1055B000FBF7C0FA034619464FF07E50FBF776FC26
:1055C00003467B6107F14803029307F150030193FF
:1055D0002A4B0093012302220221022000F0A8F8A6
:1055E000274B029307F11403019307F1480300933B
:1055F000012301220121022000F09AF807F114038F
:1056000002931C4B019307F17C03009301230222B8
:105610000221012000F08CF87B691946D7F8A00020
:10562000FBF786FA03467B6107F14803029307F113
:1056300014030193124B0093012301220121022044
:1056400000F076F80B4B1B68BA6C11461846FBF756
:1056500071FA03461A46064B1A60064B5B68FA6CF1
:1056600011460FE00AD7A33BA087000817B7D1382F
:1056700088030020900300200C00002098030020E5
:10568000A80300201846FBF755FA03461A46234B99
:105690005A6007F13003029307F17C030193204B1A
:1056A0000093022301220121022000F041F81D4B4A
:1056B0001B683A6B11461846FBF73AFA03463B6300
:1056C000184B5B687A6B11461846FBF731FA0346B4
:1056D0007B63144B9B68BA6B11461846FBF728FA9C
:1056E0000346BB630F4BDB68FA6B11461846FBF7AA
:1056F0001FFA0346FB630C4B02930C4B019307F11B
:1057000030030093022302220221022000F010F84D
:10571000024B1B681846A837BD46B0BD8803002061
:10572000A8030020DC8700080C000020980300205C
:105730002DE9F04F8DB000AF78613961FA60BB6040
:105740003A697A60531E3B62002392469B464FF0B3
:1057500000024FF000034FEA4B1343EADA634FEACB
:105760004A12BA683A60531EFB610023904699467C
:105770004FF000024FF000034FEA491343EAD863A9
:105780004FEA4812BE68731EBB61324600231446BE
:105790001D464FF000024FF000036B0143EAD46353
:1057A00062013A69FB689A425AD10023FB6253E0D6
:1057B0000023BB6249E03246FB6A02FB03F39B0015
:1057C0003A6E1344BA6A4FF0000143F822100023E6
:1057D0007B6233E07A68FB6A02FB03F39B00BA6DDD
:1057E00013447A6A53F822003A687B6A02FB03F397
:1057F0009B00FA6D1344BA6A53F822301946FBF73E
:10580000A1FA034618463246FB6A02FB03F39B00EB
:105810003A6E1344BA6A53F822103246FB6A02FB0E
:1058200003F39B003A6ED418FBF784F903461A463B
:10583000BB6A44F823207B6A01337B627A6A3B6946
:105840009A42C7DBBB6A0133BB62BA6ABB689A4241
:10585000B1DBFB6A0133FB62FA6A7B699A42A7DB20
:1058600000BF3437BD46BDE8F08F80B584B002AFCD
:105870000346FB71FB790093032302226B21D020A6
:10588000FCF768F900BF0837BD4680BD80B584B01D
:1058900002AF0346FB71FB790093022304221B2114
:1058A000D020FCF757F900BF0837BD4680BD80B552
:1058B00084B002AF0346FB71FB79009302230422FC
:1058C0001C21D020FCF746F900BF0837BD4680BD3B
:1058D00080B582B000AF0346FB71FB7906226B21D5
:1058E000D020FCF78DF900BF0837BD4680BD80B5DC
:1058F00082B000AF0346FB71FB7905226A21D020FC
:10590000FCF77EF900BF0837BD4680BD80B582B088
:1059100000AF0346FB71FB7901223721D020FCF751
:105920006FF900BF0837BD4680BD80B500AF0220CB
:10593000FFF79BFF0320FFF7A9FF0020FFF7B7FF4A
:105940000020FFF7C5FF0020FFF7D1FF0020FFF781
:10595000DDFF00BF80BD002B2DE9F0471D46BBBF1A
:1059600003F100431D4600232D2388B01446B8BF21
:105970001446129A109E1370149BDDF84CA023F06D
:105980002008B8F1460F05D0B8F1450F00D1013617
:10599000022300E0032307AA049206AACDE902A28B
:1059A000CDE9003622462B4600F0F6FEB8F1470F4F
:1059B000074619D1119BDB070ED500EB0609002223
:1059C000002320462946FAF7EFFF08B1CDF81C90D6
:1059D0003022079B4B451ED33846079B159ADB1B8D
:1059E000136008B0BDE8F087B8F1460F00EB060978
:1059F000E5D10378302B0AD1002200232046294626
:105A0000FAF7D2FF18B9C6F10106CAF80060DAF851
:105A100000309944D3E7591C07911A70D9E7F7B5BC
:105A20000029B6BF2D232B23494209290270437058
:105A300029DD0DF107031D460A27B1FBF7F61A46CB
:105A400007FB1614303402F8014C0C46632C314627
:105A500003F1FF33F1DC3031941E03F8011C2346BF
:105A6000411CAB420AD30DF109039B1AAC4288BF1B
:105A7000002302330344181A03B0F0BD13F8016B7E
:105A800001F8016FEDE7302330318370C170031DE1
:105A9000F1E700002DE9F04F91B00C46DDF8688089
:105AA00016461F46054600F067FD03681846089332
:105AB000FAF74EFB00230E93D8F800300990073315
:105AC00023F0070303F1080294F818A0D4F800B0FB
:105AD000C8F80020D3E9008929F000430B93CDF8E2
